:1078000021E0A0E0B1E001C01D92A838B207E1F785
:1078100084B78093000114BE8091600088618093DA
:107820006000109260008091000181FD05C0E09130
:107830000101F0910201099511248FEF98E09EBF9C
:107840008DBF1CD088E080936000FFCF9091C00076
:1078500095FFFCCF8093C600089581E492E4AFE0E9
:10786000B0E02091C00027FD06C00197A109B10931
:10787000C1F78FEF08958091C6000895EF92FF92AF
:107880000F931F93CF9380E18093C4001092C500A3
:1078900088E18093C10086E08093C2005098589A96
:1078A00010E0DBDFC82F8033C9F18F3F09F4E8C057
:1078B000112309F4E1C0813509F4DEC0813459F1A6
:1078C000853519F1863521F1823441F1853431F164
:1078D000853721F18F7E843621F0C035F9F011E033
:1078E000E0CFBBDF80930401B8DF80930301B5DFF5
:1078F00091E0853409F090E090930501C43671F46D
:1079000000910301109104010BC002E010E008C0D7
:1079100004E010E005C001E010E002C000E010E06B
:1079200038E0E32E31E0F32EC701885091408017F4
:10793000910728F492DFF70181937F01F5CF8DDF66
:107940008032E9F784E182DFC13491F4809108014B
:10795000803811F482E028C0813811F481E024C01D
:10796000823811F480E120C0883901F583E01CC021
:10797000C53559F48091080190910901880F991F2C
:10798000909307018093060174C0C63589F48091F5
:107990000801803359F480910A01811102C08EE1FF
:1079A00003C0813059F485E951DF63C080E0FCCF2A
:1079B000C53731F48EE14ADF85E948DF8FE0F4CF47
:1079C000C43659F580910501882329F120E0822FE2
:1079D00090E040910301509104018417950708F04D
:1079E00048C0F999FECF409106015091070152BD60
:1079F00041BDFC01E85FFE4F808180BDFA9AF99A93
:107A00008091060190910701019690930701809360
:107A100006012F5FDCCF3AD02CC0C43751F500E00F
:107A200010E080910301909104010817190708F5EF
:107A300080910501882359F0F999FECF80910601C4
:107A40009091070192BD81BDF89A80B505C0E09183
:107A50000601F09107018491F9DE80910601909171
:107A60000701019690930701809306010F5F1F4F56
:107A7000D8CF80E1EBDE33CF84E1E8DE80E1E6DEE3
:107A8000CF911F910F91FF90EF900895F999FECF3C
:107A9000209106013091070183E0F901809357009E
:107AA000E89507B600FCFDCFA8E0B1E080E090E0EB
:107AB00041E06D917D91FC01E20FF31F0B014093BA
:107AC0005700E895112402968038910591F785E0DA
:107AD000F90180935700E89507B600FCFDCF81E1DE
:087AE00080935700E89508951A
:040000030000780081
:00000001FF
